S00E00006D795F6170702E7372656390
S11300000C942A000C943F000C943F000C943F0085
S11300100C943F000C943F000C943F000C943F0060
S11300200C943F000C943F000C943F000C943F0050
S11300300C943F000C943F000C943F000C943F0040
S11300400C943F000C943F000C943F000C943F0030
S11300500C943F0011241FBECFE5D8E0DEBFCDBF16
S113006010E0A0E6B0E0E0E2F3E002C005900D92FB
S1130070A837B107D9F70E945C010C948E010C9447
S11300800000009779F0FC0120812F70253060F486
S1130090608162956F70677040E0822F0E94CB0090
S11300A081E0089580E0089580E00895CF93DF9380
S11300B00097B1F0FC0120812F70253098F4AB013A
S11300C0EC01608162956F706770822F0E943F011E
S11300D088819091000090FB87F9888381E003C0B8
S11300E080E001C080E0DF91CF910895CF93DF934A
S11300F0FC01892BB9F080818F708630A8F460816F
S113010062956F70693090F4EF0141E00E94CB007A
S11301108881682F62956F7040E08F700E9405019E
S113012081E005C080E003C080E001C080E0DF9191
S1130130CF910895FC01892B81F080818F708630E6
S113014070F4608162956F70693058F491E0918326
S113015041E00E94050181E0089580E0089580E077
S1130160089580E00895FC01892B79F080818F70D7
S1130170863068F4608162956F70693050F4118242
S113018040E00E94050181E0089580E0089580E048
S1130190089580E00895853090F5683090F5442303
S11301A019F04130B9F02FC0E82FF0E0EE0FFF1F37
S11301B0E059FF4F0190F081E02D208181E090E033
S11301C002C0880F991F6A95E2F780958223808385
S11301D081E00895E82FF0E0EE0FFF1FE059FF4F94
S11301E00190F081E02D208181E090E002C0880F31
S11301F0991F6A95E2F7822B808381E0089580E05D
S1130200089580E0089580E00895853090F5683081
S113021090F5442319F04130B9F02FC0E82FF0E0F5
S1130220EE0FFF1FE859FF4F0190F081E02D208170
S113023081E090E002C0880F991F6A95E2F78095EB
S11302408223808381E00895E82FF0E0EE0FFF1F02
S1130250E859FF4F0190F081E02D208181E090E08A
S113026002C0880F991F6A95E2F7822B808381E090
S1130270089580E0089580E0089581E00895853030
S1130280B8F46830B8F4E82FF0E0EE0FFF1FE05A3E
S1130290FF4F0190F081E02D808190E002C09595A0
S11302A087956A95E2F78170FA01808381E0089569
S11302B080E0089580E00895CF93DF9300D000D0CC
S11302C0CDB7DEB781E289831A828B81807883601F
S11302D08F778B83CE0101960E947600CE01039620
S11302E00E944100BE016C5F7F4FCE0103960E94C5
S11302F056008C81813069F4CE0101960E949A00E7
S11303002FE986E891E0215080409040E1F700C059
S11303100000CE0101960E94B300E4CFF894FFCF11
S113032039003600330030003B003800350032001D
S10B03303A00370034003100EB
S9030000FC
