:100000000C942A000C943F000C943F000C943F0089
:100010000C943F000C943F000C943F000C943F0064
:100020000C943F000C943F000C943F000C943F0054
:100030000C943F000C943F000C943F000C943F0044
:100040000C943F000C943F000C943F000C943F0034
:100050000C943F0011241FBECFE5D8E0DEBFCDBF1A
:1000600010E0A0E6B0E0E0E2F2E002C005900D9200
:10007000A037B107D9F70E94EA000C940E010C9446
:100080000000009769F0FC016081862F8F70853039
:1000900038F46295677040E00E94870081E008951F
:1000A00080E00895CF93DF93FC01892BB9F0608144
:1000B000862F8F70863090F462956F70693070F47F
:1000C000EF0141E00E9487008881682F62956F7080
:1000D00040E08F700E94B80081E001C080E0DF91B5
:1000E000CF910895FC01892B81F06081862F8F705C
:1000F000863058F462956F70693038F491E09183DE
:1001000041E00E94B80081E0089580E008958530C4
:1001100068F5683058F54423A1F0413039F5E82FEF
:10012000F0E0EE0FFF1FE859FF4F0190F081E02D46
:10013000208181E090E001C0880F6A95EAF7822B68
:1001400012C0E82FF0E0EE0FFF1FE859FF4F0190BB
:10015000F081E02D208181E090E001C0880F6A9558
:10016000EAF780958223808381E0089580E00895F6
:10017000853060F5683050F54423A1F0413041F5F9
:10018000E82FF0E0EE0FFF1FE05AFF4F0190F081E3
:10019000E02D208181E090E001C0880F6A95EAF7A8
:1001A000822B12C0E82FF0E0EE0FFF1FE05AFF4F46
:1001B0000190F081E02D208181E090E001C0880F66
:1001C0006A95EAF780958223808302C080E00895D3
:1001D00081E00895CF93DF9300D01F92CDB7DEB7B3
:1001E00081E289831A828B81807883608F778B8309
:1001F000CE0101960E945200CE0103960E9441005A
:10020000CE0101960E9472002FE986E891E021500C
:1002100080409040E1F700C00000F2CFF894FFCF9B
:100220003B003800350032003A003700340031001E
:00000001FF
